:020000040800F2
:100000000050002021020008270200082B020008EF
:1000100043020008470200085F02000800000000D9
:10002000000000000000000000000000F1090008CE
:100030007B02000800000000510A0008950A000831
:100040009102000891020008910200089102000844
:100050009102000891020008910200089102000834
:100060009102000891020008910200089102000824
:100070009102000891020008910200089102000814
:100080009102000891020008910200089102000804
:1000900091020008910200089102000891020008F4
:1000A00091020008910200089102000891020008E4
:1000B00091020008910200089102000891020008D4
:1000C00091020008910200089102000891020008C4
:1000D00091020008910200089102000891020008B4
:1000E000910200089102000891020008000000003F
:1000F0000000000000000000000000000000000000
:1001000000000000000000005FF808F100B583B0B7
:1001100000F0E0F8304B314A1360314A1360314B44
:10012000314A32498B4204D21168196004330432D7
:10013000F7E72A4B1A682E4B9A4200D0FEE7284B6D
:100140001A682C4B9A42F9D1234B2B4A13602B4A45
:1001500013602B4B02E000221A600433294A9342B9
:10016000F9D3254B1B6813B9244B1B6803B1FEE779
:1001700000F0BCF8694601A800F0A4F8224C234B1B
:10018000E41AA4100025AC4214DC214C214BE41AE3
:10019000A4100025AC4213DC0099019800F0CCFAC1
:1001A00005461D4C1D4BE41AA410002C0EDC2846FD
:1001B00000F086F8154B53F8253098470135E2E7F3
:1001C000144B53F8253098470135E3E7013C134BB6
:1001D00053F824309847E8E7BABADECA0000002096
:1001E00024000020000000206819000828000020DA
:1001F000785634123254769828000020604500204A
:100200002800002064450020BC020008BC02000851
:10021000BC020008BC020008BC020008BC020008C6
:1002200008B5FFF773FF00BEFEE71EF0040F0CBF1A
:10023000EFF30880EFF309807146124A104700BEC1
:10024000FEE700BEFEE71EF0040F0CBFEFF30880D0
:10025000EFF3098071460C4A104700BEFEE71EF01E
:10026000040F0CBFEFF30880EFF309807146074AD3
:10027000104700BEFEE700BEFEE700BEFEE700BE80
:10028000FEE770473F0200085B02000873020008A7
:0402900000BEFEE7C7
:1002940068190008000000202800002068190008E0
:1002A4000000000000000000280000206445002039
:0802B400000000000000000042
:1002C000FEE7000001230360014B0B60704700BF95
:1002D0000400002008B500F073F8024A024B9A604F
:1002E00008BD00BF0000000800ED00E008B500F008
:1002F0008FF808BD82B00023019300932C4A136845
:1003000043F4803313602A4B1B6803F400330093DB
:10031000019B01330193009B1BB9019BB3F5A06FB7
:10032000F1D1234B1B6813F4003F06D00123009347
:10033000009B012B04D002B0704700230093F7E725
:100340001C4B1A6842F010021A601A6822F003026D
:100350001A601A6842F002021A60A3F580535A68C4
:100360005A605A685A605A6842F480625A605A6801
:1003700022F47C125A605A6842F4E8125A601A68F1
:1003800042F080721A600A4B1B6813F0007FFAD0AB
:10039000074B5A6822F003025A605A6842F0020280
:1003A0005A60034B5B6803F00C03082BF9D1C2E7DA
:1003B000001002400020024008B5FFF79BFF08BD77
:1003C00008B5104B1A6842F001021A6059680E4ACB
:1003D0000A405A601A6822F0847222F480321A604D
:1003E0001A6822F480221A605A6822F4FE025A60C7
:1003F0004FF41F029A60FFF7DFFF044B4FF00062DB
:100400009A6008BD001002400000FFF800ED00E017
:100410001F4B5B6803F00C03042B15D0082B17D07F
:100420001BB11C4B1C4A1A6002E01A4B1A4A1A6094
:10043000174B5B68C3F30313184AD35CDAB2154950
:100440000B68D3400B607047124B134A1A60EFE7FA
:100450000F4A53685268C3F38343023312F4803F58
:100460000AD00B4A526812F4003F0BD00C4A02FB30
:1004700003F3084A1360DBE7094A02FB03F3054A6A
:100480001360D5E7044A02FB03F3024A1360CFE787
:10049000001002401C00002000127A000C00002016
:1004A00000093D0030B587B0084C019400258DF857
:1004B000085008238DF8093001A800F04FF80122F8
:1004C0002946204600F079F807B030BD0008014009
:1004D00008B50021034800F06BF808B9012008BDF9
:1004E0000020FCE70008014008B5012909D0184B9D
:1004F00098421ED0174B984220D0174B984222D0DA
:1005000008BD134B98420AD0124B98420CD0124BA4
:100510009842F5D10421022000F07CF8F0E7022196
:10052000084600F077F8EBE70321022000F072F8AC
:10053000E6E70221084600F093F8E1E703210220F4
:1005400000F08EF8DCE70421022000F089F8D7E7FC
:1005500000080140000C01400010014070B5054644
:100560000479467901210068FFF7BEFF072C10D9F6
:10057000083CE4B229684B68A4000F22A24023EA99
:1005800002034B602A68536806FA04F41C43546063
:1005900070BD29680B68A4000F22A24023EA020361
:1005A0000B602A68136806FA04F41C431460EFE732
:1005B0008068C84000F001007047012A04D0012380
:1005C00003FA01F141617047012303FA01F101616E
:1005D0007047C368012202FA01F14B40C3607047C3
:1005E00000B587B0064B019300238DF80830012336
:1005F0008DF8093001A8FFF7B1FF07B05DF804FBE3
:10060000000C014008B500210148FFF7E2FF08BDDA
:10061000000C01401F291CD801280BD010B1022862
:1006200010D070470B480368012202FA01F1194308
:100630000160704708480368012202FA01F119437A
:100640000160704705480368012202FA01F119436D
:1006500001607047141002401C1002401810024044
:100660001F291FD801280CD010B1022812D07047C2
:100670000D480368012202FA01F123EA0101016039
:1006800070470A480368012202FA01F123EA0101D6
:100690000160704706480368012202FA01F123EA6B
:1006A00001010160704700BF141002401C1002409D
:1006B00018100240034B4FF480321A6004330122B9
:1006C0001A6070470010024008B500231A46194608
:1006D0000C48006800F060FB09E000231A46194648
:1006E0000848006800F058FB642000F057FFFFF74F
:1006F000EFFE0128F1D06421024B186800F0D8FB0E
:10070000F2E700BF3000002008B502E0C82000F08A
:1007100045FF0021074B186800F0CAFB0128F5D1FE
:10072000FFF770FF00231A4619460248006800F0E0
:1007300033FBEBE73000002000B583B0FFF7BAFFD2
:10074000FFF7B0FEFFF74CFF03220021012000F06D
:100750000BFB0C4B18600C4B0193022300930023FE
:1007600080220A490A4800F0BBFD0A4B019301238D
:100770000093002380220849084800F0B1FD00F0F2
:10078000E1FDFEE7300000203400002040190008A1
:10079000C9060008380000205019000809070008A1
:1007A000124A12F0070F1ED0D11D21F00701C1F52A
:1007B000884313440A460E480260002141601344F6
:1007C000083B23F007030B48036059601960991A2E
:1007D00051601360084B1960084B1960084B4FF0CB
:1007E00000421A6070474FF48843E4E7400000205D
:1007F000544400203C000020484400204444002091
:100800004044002010B4134A00E01A4613688342A3
:10081000FBD351685418844209D041684418A3425C
:100820000AD00360904200D0106010BC704740684E
:10083000014451601046F0E7074C2468A34206D0FB
:100840005B681944416013681B680360EAE7046051
:10085000E8E700BF544400203C00002070B5054686
:1008600000F0A2FD2A4B1B68A3B12A4B1B681D4256
:1008700046D135B1083515F0070F02D025F0070530
:100880000835002D3ED0244B1B68AB423CD3234A95
:10089000146804E0FFF784FFE7E722461C4663681C
:1008A000AB4202D22368002BF7D1194B1B68A3423D
:1008B0002CD0166808362368136063685B1B102B06
:1008C00018D8626814490B689B1A0B6014490968B0
:1008D0008B4201D212490B600E4B1B6813436360BD
:1008E000002323600F4A13680133136000F0E4FD16
:1008F000304670BD601943606560FFF783FFE0E735
:100900000026F3E70026F1E70026EFE70026EDE7F3
:100910003C00002040440020444400205444002077
:10092000484400204C44002018B338B50446A0F1D8
:10093000080550F8042C0F4909680A4202D050F803
:10094000080C00B138BD22EA010244F8042C00F082
:100950002BFD54F8041C084A13680B441360284606
:10096000FFF750FF054A13680133136000F0A4FD40
:10097000E8E77047404400204444002050440020F1
:1009800082B0002301934FF0BF0383F31188BFF3BC
:100990006F8FBFF34F8F019B002BFCD002B07047CD
:1009A00006480068006880F3088862B661B6BFF345
:1009B0004F8FBFF36F8F00DF00BF000008ED00E036
:1009C0004FF0807340F8043C21F0010140F8081C0E
:1009D000034B40F80C3C40F8202C4038704700BFD7
:1009E0008109000800000000000000000000000075
:1009F000074B19680868B0E8F00F80F30988BFF367
:100A00006F8F4FF0000080F311884EF00D0E70478D
:100A10005C4400204FF0BF0383F31188BFF36F8F56
:100A2000BFF34F8F024A136801331360704700BF52
:100A300020000020034A1368013B13600BB983F3C5
:100A40001188704720000020000000000000000016
:100A5000EFF30980BFF36F8F0D4B1A6820E9F00F99
:100A600010602DE908404FF0BF0080F3118800F0BE
:100A7000AFFD4FF0000080F31188BDE80840196811
:100A80000868B0E8F00F80F30988BFF36F8F7047F4
:100A90005C44002008B54FF0BF0383F31188BFF317
:100AA0006F8FBFF34F8F00F087FC18B1034B4FF0EF
:100AB00080521A60002383F3118808BD04ED00E022
:100AC000054B00221A6005490A60054A41F63F714C
:100AD000116007221A60704710E000E018E000E0A3
:100AE00014E000E010B50B4B1A6842F47F021A6064
:100AF0001A6842F07F421A60FFF7E2FF0024064BBB
:100B00001C60FFF74DFF00F063FDFFF739FF204643
:100B100010BD00BF20ED00E02000002000F1080320
:100B200043604FF0FF328260C360036100230360C3
:100B3000704700230361704743684B609A688A607E
:100B40009A685160996008610368013303607047D7
:100B500030B40D68B5F1FF3F02D000F1080202E0A9
:100B6000026904E01A4653681C68AC42FAD953681B
:100B70004B6099608A6051600861036801330360CB
:100B800030BC70470369426881689160826841683F
:100B900051605A68824206D0002202611A68013A06
:100BA0001A601868704782685A60F5E7436A23B193
:100BB000036B1868C0F1050070470020704710B53E
:100BC0000446FFF727FFA26BE36B9A4204D0002490
:100BD000FFF730FF204610BD0124F9E710B50446A9
:100BE000FFF718FFA36B23B10024FFF723FF204674
:100BF00010BD0124F9E770B504461646856B026CFA
:100C00005AB903681BB100200135A56370BD806827
:100C100000F0FAFD0023A360F6E76EB9406800F02B
:100C200083FE226C636813446360A268934219D305
:100C3000236863600020E7E7C06800F075FE226C5F
:100C40005242E3681344E36021688B4202D2A368F6
:100C50001A44E260022E01D00020D5E725B1013D03
:100C60000020D1E70020CFE70020CDE738B50546CA
:100C7000FFF7D0FE95F8454064B203E000F068FD50
:100C8000013C64B2002C08DD6B6A33B105F124002D
:100C900000F0EAFC0028F3D0F0E7FF2385F84530A8
:100CA000FFF7C8FEFFF7B6FE95F8444064B203E0D4
:100CB00000F04EFD013C64B2002C08DD2B6933B11D
:100CC00005F1100000F0D0FC0028F3D0F0E7FF237E
:100CD00085F84430FFF7AEFE38BD000038B5044655
:100CE0000D46FFF797FE2168E26B236C03FB0210B1
:100CF000A0600020A0636160013A02FB0313E3607F
:100D0000FF2384F8443084F84530A5B923691BB922
:100D1000FFF790FE012038BD04F1100000F0A4FCA4
:100D20000028F5D0084B4FF080521A60BFF34F8F68
:100D3000BFF36F8FECE704F11000FFF7EFFE04F153
:100D40002400FFF7EBFEE3E704ED00E010B5029BA3
:100D50000C4639B11A60D8631C6401211846FFF7AC
:100D6000BDFF10BD1B60F6E7F0B583B005460E462B
:100D7000174601FB00F04830FFF770FD044638B11C
:100D800000903B4600F1480231462846FFF7DEFF5F
:100D9000204603B0F0BD0000F0B585B004460F4614
:100DA00001921E46002539E0324639462046FFF7BB
:100DB00022FF636A6BB938B13C4B4FF080521A6026
:100DC000BFF34F8FBFF36F8FFFF734FE012005B0E5
:100DD000F0BD04F1240000F047FC0028F4D0334BB0
:100DE0004FF080521A60BFF34F8FBFF36F8FEBE766
:100DF000FFF720FE0020EAE702A800F071FC0125C1
:100E000019E0002384F8443021E0002384F84530C1
:100E100023E02046FFF72AFF00F04EFBFFF7FAFD24
:100E2000A26BE36B9A42BFD3022EBDD0019B002B75
:100E3000DED0002DE0D0FFF7FDFD00F0B5FAFFF7A2
:100E4000E9FD94F844305BB2B3F1FF3FD9D094F898
:100E500045305BB2B3F1FF3FD7D0FFF7EBFD01A9FF
:100E600002A800F049FCC8B92046FFF7A8FE0028F8
:100E7000CFD0019904F1100000F0E8FB2046FFF705
:100E8000F5FE00F019FB0028C8D1084B4FF0805246
:100E90001A60BFF34F8FBFF36F8FBFE72046FFF796
:100EA000E5FE00F009FB002091E700BF04ED00E043
:100EB00070B584B0044601910026354648E0013BF8
:100EC000A36323683BB123694BB9FFF7B3FD012648
:100ED000304604B070BD00F019FDA060F3E704F1E6
:100EE000100000F0C1FB0028EFD0424B4FF08052C1
:100EF0001A60BFF34F8FBFF36F8FE6E7FFF79AFDDE
:100F00000026E5E702A800F0EBFB01252AE000231C
:100F100084F8443032E0002384F8453034E0FFF7B1
:100F200079FDA06800F01AFC0646FFF783FD3BE060
:100F30002046FFF79BFE00F0BFFA09E02046FFF7CE
:100F400095FE00F0B9FA2046FFF748FE002840D190
:100F5000FFF760FDA36B002BB1D1019B002BCDD01F
:100F6000002DCFD0FFF766FD00F01EFAFFF752FD0F
:100F700094F844305BB2B3F1FF3FC8D094F84530E9
:100F80005BB2B3F1FF3FC6D0FFF754FD01A902A841
:100F900000F0B2FB0028D1D12046FFF71FFE002849
:100FA000C6D02368002BBAD0019904F1240000F0C8
:100FB0004DFB2046FFF75AFE00F07EFA0028C7D10D
:100FC0000C4B4FF080521A60BFF34F8FBFF36F8FFF
:100FD000BEE7002E3FF47CAFFFF71CFD2046FFF775
:100FE000E5FD0146A06800F04FFCFFF723FD002659
:100FF0006EE700BF04ED00E0084B1B681B683BB1C7
:10100000064B1B68DB68DB685A68054B1A60704743
:10101000034B4FF0FF321A60704700BF604400205E
:101020000C45002010B50446006BFFF77DFC204600
:10103000FFF77AFC10BD2DE9F04780469946089DE0
:10104000099F0A9C266B02F18042013A06EB820658
:1010500026F0070689B30A4600230F2B07D8D0567F
:10106000E11881F83400D15609B10133F5E70023C6
:1010700084F84330042D00D90425E56265644FF0FF
:10108000000AC4F848A0201DFFF753FD04F1180022
:10109000FFF74FFD2461C5F10505A5616462C4F841
:1010A0004CA084F850A04A4641463046FFF788FCE1
:1010B000206007B13C60BDE8F087002384F834303D
:1010C000D8E7000038B5002407E004EB8402930061
:1010D0000E481844FFF722FD0134042CF5D90C4DBD
:1010E0002846FFF71BFD0B4C2046FFF717FD0A486B
:1010F000FFF714FD0948FFF711FD0948FFF70EFD42
:10110000084B1D60084B1C6038BD00BF68440020C0
:10111000E0440020F444002018450020444500200D
:1011200030450020604400206444002010B504468F
:10113000FFF770FC204A1368013313601F4B1B68D4
:101140005BB11F4B1B686BB91C4B1B68DA6AE36A07
:101150009A4207D8194B1C6004E0184B1C601368B6
:10116000012B26D0174A136801331360E36A01226A
:101170009A401549086802430A6003EB83039A000A
:10118000211D12481044FFF7D7FCFFF753FC0C4B0E
:101190001B686BB1094B1B68DA6AE36A9A4207D293
:1011A0000B4B4FF080521A60BFF34F8FBFF36F8F1E
:1011B00010BDFFF787FFD5E7CC4400205C4400203A
:1011C0002C450020D8440020DC4400206844002046
:1011D00004ED00E00F4B1B68D3B110B5FFF71AFC0C
:1011E0000D4BDB68DC68201DFFF7CCFC0B4A136855
:1011F000013B1360074A1368013B1360FFF71AFCB9
:101200002046FFF70FFF034B1B68002BE6D110BDF4
:10121000704700BFD044002044450020CC4400204B
:1012200008B5FFF7D7FF064B1B68012BF9D9054B13
:101230004FF080521A60BFF34F8FBFF36F8FF0E70C
:101240006844002004ED00E070B504460E461D4BD6
:101250001D681D4B18680430FFF794FC50B91A4BF9
:101260001B68DA6A012303FA02F218490B6823EAC1
:1012700002030B60B4F1FF3F13D02C44124B1B68E8
:101280005C60A54216D8124B18680F4B19680431E0
:10129000FFF75EFC0F4B1B68A34212D90D4B1C607D
:1012A0000FE0002EE9D0084B196804310A48FFF717
:1012B00043FC06E0094B1868034B19680431FFF73B
:1012C00047FC70BD584500205C440020DC440020F1
:1012D000604400200C45002030450020644400207C
:1012E0002DE9F04385B0074688461546994690009B
:1012F000FFF7B4FAF8B106465420FFF7AFFA0446F8
:10130000A8B10663D4B10023039302940D9B01930B
:101310000C9B00934B462A4641463846FFF78BFE0E
:101320002046FFF703FF012005B0BDE8F0833046FB
:10133000FFF7FAFAE6E74FF0FF30F5E74FF0FF303E
:10134000F2E7000000B583B0114B01930023009336
:10135000802210491048FFF7C3FF012802D003B0D4
:101360005DF804FB4FF0BF0383F31188BFF36F8F69
:10137000BFF34F8F094B4FF0FF321A60084B012229
:101380001A60084B00221A60FFF7ACFBE7E700BFCA
:101390000845002060190008211200080C450020B3
:1013A0002C45002058450020024A13680133136081
:1013B000704700BFD4440020F8B5344B1B68002BA5
:1013C0005DD1334B1D6801351D60ADB1314B1B68DC
:1013D000AB424AD90027304B1B68DB6A03EB83031F
:1013E0009A002E4B9B58012B00D901272C4B1B68D0
:1013F000002B49D0012747E02A4A11682A4B186878
:1014000010601960294A136801331360FFF7F4FD77
:10141000DCE70127234B1B681B6843B3214B1B6888
:10142000DB68DC6863689D4226D3261D3046FFF7E3
:10143000A9FBA36A1BB104F11800FFF7A3FBE36A41
:1014400001229A401A49086802430A6003EB8303A9
:101450009A00314611481044FFF76EFBE26A0E4BCA
:101460001B68DB6A9A42D4D2D4E70027D2E7094B43
:101470004FF0FF321A60AEE7064A1360ABE70D4A41
:1014800013680133136000273846F8BDD4440020A8
:10149000584500200C4500205C4400206844002092
:1014A0005C4500206044002064440020104500207A
:1014B000DC4400201445002038B5FFF7ABFA2E4B72
:1014C0001A68013A1A601B68002B4DD12B4B1B6820
:1014D0003BB300242A4B1B682BB3294BDB68DC6829
:1014E00004F11800FFF74EFB251D2846FFF74AFBC5
:1014F000E36A01229A402349086802430A6003EB29
:1015000083039A00294620481044FFF715FBE26A3E
:101510001E4B1B68DB6A9A42DCD31D4B01221A600A
:10152000D8E7002421E00CB1FFF766FD194B1C68D9
:1015300074B9174B1B68E3B1174B4FF080521A6018
:10154000BFF34F8FBFF36F8F01240EE0013C07D034
:10155000FFF732FF0028F9D00D4B01221A60F5E7A2
:101560000C4B00221A60E4E70024FFF763FA2046E0
:1015700038BD0024F9E700BFD4440020CC4400204B
:1015800018450020DC440020684400205C44002012
:101590005C4500201445002004ED00E010B540B982
:1015A0000A4B4FF080521A60BFF34F8FBFF36F8F1B
:1015B00010BD0446FFF7F8FE00212046FFF744FE69
:1015C000FFF77AFF0028EBD0F2E700BF04ED00E060
:1015D000194B1B681BBB10B4184B00221A60184B28
:1015E0001B68B3FA83F3DBB2C3F11F0315489A00FB
:1015F000D418A10001444C6864684C601A449100FE
:101600000831084484420ED003EB83039A000D4B4B
:1016100013445B68DA680C4B1A6010BC7047074BC8
:1016200001221A607047606803EB83029100054A4B
:101630000A445060E8E700BFD44400205C45002025
:10164000DC440020684400205C44002010B50C46B7
:10165000044B19681831FFF77BFA01212046FFF788
:10166000F3FD10BD5C44002038B5C368DC6804F1AC
:1016700018052846FFF786FA134B1B68E3B9251DAA
:101680002846FFF77FFAE36A01229A400F4908686B
:1016900002430A6003EB83039A0029460C48104476
:1016A000FFF74AFAE26A0B4B1B68DB6A9A4208D9D9
:1016B0000120094B186038BD29460848FFF73CFA5D
:1016C000F0E70020F7E700BFD4440020DC4400200E
:1016D000684400205C4400205C4500201845002040
:1016E000034B1B680360034B1B684360704700BFDC
:1016F0001045002058450020F8B504460D46FFF778
:1017000089F9114B1A686168501A2B68B3F1FF3FD1
:1017100016D027680D4E3668B74201D0914211D9D4
:10172000834206D800232B600124FFF783F920466B
:10173000F8BD1B1A2B602046FFF7D2FF0024F4E708
:101740000024F2E70124F0E758450020104500206E
:10175000014B01221A6070475C45002000284BD0E5
:1017600038B50446C26A25490968C96A8A4239D22D
:101770008169002905DB21490968C96AC1F10501B0
:101780008161606902EB820291001D4A0A44904225
:1017900005D01A4A1268D26AE262012038BD251DBE
:1017A0002846FFF7EFF940B9E26A012303FA02F293
:1017B00014490B6823EA02030B60104B1B68DB6AB9
:1017C000E362012404FA03F20E49086802430A6046
:1017D00003EB83039A00294609481044FFF7ACF94C
:1017E0002046DBE7426C054B1B68DB6A9A4201D25C
:1017F0000120D3E70020D1E7002070475C4400209F
:1018000068440020DC440020002834D038B5044669
:10181000826C013A8264C06A616C88422DD00AB140
:10182000002038BD251D2846FFF7ACF968B9E36AEA
:1018300003EB83018A0012498A5832B901229A4087
:1018400010490B6823EA02030B60636CE362C3F187
:101850000502A261012404FA03F20A49086802435E
:101860000A6003EB83039A00294605481044FFF7FA
:1018700063F92046D5E7002070470020D1E700BF7C
:1018800068440020DC440020002839D038B50446E4
:10189000426C8A4200D20A46E16A914202D0A06CB0
:1018A000012800D038BDE262A069002802DBC2F145
:1018B0000502A261636901EB81018800114A0244BB
:1018C0009342EFD1251D2846FFF75CF940B9E26A43
:1018D000012303FA02F20C490B6823EA02030B60AE
:1018E000E36A01229A400849086802430A6003EB50
:1018F00083039A00294603481044FFF71DF9D1E7F6
:10190000704700BF68440020DC440020054B1B6882
:1019100023B1044B1A68936C01339364014B18682C
:10192000704700BF5C44002010B5431E0A4491423A
:1019300000D110BD11F8014B03F8014FF7E700008B
:10194000427574746F6E436865636B466C616700C3
:101950004C656454616B65416374696F6E0000008F
:0819600049444C450000000061
:10196800785634122C00002000000000000000000F
:1019780000000000010203040607080900A24A0447
:08198800AAAAAAAA325476981B
:040000050800010DE1
:00000001FF
