:020000040800F2
:100000000050002021020008270200082B020008EF
:1000100043020008470200085F02000800000000D9
:10002000000000000000000000000000710900084E
:100030007B02000800000000D1090008150A000832
:100040009102000891020008910200089102000844
:100050009102000891020008910200089102000834
:100060009102000891020008910200089102000824
:100070009102000891020008910200089102000814
:100080009102000891020008910200089102000804
:1000900091020008910200089102000891020008F4
:1000A00091020008910200089102000891020008E4
:1000B00091020008910200089102000891020008D4
:1000C00091020008910200089102000891020008C4
:1000D00091020008910200089102000891020008B4
:1000E000910200089102000891020008000000003F
:1000F0000000000000000000000000000000000000
:1001000000000000000000005FF808F100B583B0B7
:1001100000F0E0F8304B314A1360314A1360314B44
:10012000314A32498B4204D21168196004330432D7
:10013000F7E72A4B1A682E4B9A4200D0FEE7284B6D
:100140001A682C4B9A42F9D1234B2B4A13602B4A45
:1001500013602B4B02E000221A600433294A9342B9
:10016000F9D3254B1B6813B9244B1B6803B1FEE779
:1001700000F0BCF8694601A800F0A4F8224C234B1B
:10018000E41AA4100025AC4214DC214C214BE41AE3
:10019000A4100025AC4213DC0099019800F096FAF7
:1001A00005461D4C1D4BE41AA410002C0EDC2846FD
:1001B00000F086F8154B53F8253098470135E2E7F3
:1001C000144B53F8253098470135E3E7013C134BB6
:1001D00053F824309847E8E7BABADECA0000002096
:1001E0002400002000000020A010000828000020AB
:1001F0007856341232547698280000205C4500204E
:100200002800002060450020BC020008BC02000855
:10021000BC020008BC020008BC020008BC020008C6
:1002200008B5FFF773FF00BEFEE71EF0040F0CBF1A
:10023000EFF30880EFF309807146124A104700BEC1
:10024000FEE700BEFEE71EF0040F0CBFEFF30880D0
:10025000EFF3098071460C4A104700BEFEE71EF01E
:10026000040F0CBFEFF30880EFF309807146074AD3
:10027000104700BEFEE700BEFEE700BEFEE700BE80
:10028000FEE770473F0200085B02000873020008A7
:0402900000BEFEE7C7
:10029400A01000080000002028000020A010000882
:1002A400000000000000000028000020604500203D
:0802B400000000000000000042
:1002C000FEE7000001230360014B0B60704700BF95
:1002D0000400002008B500F073F8024A024B9A604F
:1002E00008BD00BF0000000800ED00E008B500F008
:1002F0008FF808BD82B00023019300932C4A136845
:1003000043F4803313602A4B1B6803F400330093DB
:10031000019B01330193009B1BB9019BB3F5A06FB7
:10032000F1D1234B1B6813F4003F06D00123009347
:10033000009B012B04D002B0704700230093F7E725
:100340001C4B1A6842F010021A601A6822F003026D
:100350001A601A6842F002021A60A3F580535A68C4
:100360005A605A685A605A6842F480625A605A6801
:1003700022F47C125A605A6842F4E8125A601A68F1
:1003800042F080721A600A4B1B6813F0007FFAD0AB
:10039000074B5A6822F003025A605A6842F0020280
:1003A0005A60034B5B6803F00C03082BF9D1C2E7DA
:1003B000001002400020024008B5FFF79BFF08BD77
:1003C00008B5104B1A6842F001021A6059680E4ACB
:1003D0000A405A601A6822F0847222F480321A604D
:1003E0001A6822F480221A605A6822F4FE025A60C7
:1003F0004FF41F029A60FFF7DFFF044B4FF00062DB
:100400009A6008BD001002400000FFF800ED00E017
:100410001F4B5B6803F00C03042B15D0082B17D07F
:100420001BB11C4B1C4A1A6002E01A4B1A4A1A6094
:10043000174B5B68C3F30313184AD35CDAB2154950
:100440000B68D3400B607047124B134A1A60EFE7FA
:100450000F4A53685268C3F38343023312F4803F58
:100460000AD00B4A526812F4003F0BD00C4A02FB30
:1004700003F3084A1360DBE7094A02FB03F3054A6A
:100480001360D5E7044A02FB03F3024A1360CFE787
:10049000001002401C00002000127A000C00002016
:1004A00000093D0008B5012909D0184B98421ED01B
:1004B000174B984220D0174B984222D008BD134BBF
:1004C00098420AD0124B98420CD0124B9842F5D168
:1004D0000421022000F086F8F0E70221084600F02F
:1004E00081F8EBE70321022000F07CF8E6E7022127
:1004F000084600F09DF8E1E70321022000F098F89B
:10050000DCE70421022000F093F8D7E7000801405F
:10051000000C01400010014070B505460479467991
:1005200001210068FFF7BEFF072C10D9083CE4B298
:1005300029684B68A4000F22A24023EA02034B6003
:100540002A68536806FA04F41C43546070BD296895
:100550000B68A4000F22A24023EA02030B602A6862
:10056000136806FA04F41C431460EFE7C368012221
:1005700002FA01F14B40C3607047000000B587B03C
:10058000064B019300238DF8083001238DF80930C4
:1005900001A8FFF7C1FF07B05DF804FB000C0140A4
:1005A00000B587B0064B019301238DF808308DF814
:1005B000093001A8FFF7B0FF07B05DF804FB00BFEA
:1005C000000C014008B500210148FFF7CFFF08BD2E
:1005D000000C014008B501210148FFF7C7FF08BD25
:1005E000000C01401F291CD801280BD010B1022893
:1005F00010D070470B480368012202FA01F1194339
:100600000160704708480368012202FA01F11943AA
:100610000160704705480368012202FA01F119439D
:1006200001607047141002401C1002401810024074
:100630001F291FD801280CD010B1022812D07047F2
:100640000D480368012202FA01F123EA0101016069
:1006500070470A480368012202FA01F123EA010106
:100660000160704706480368012202FA01F123EA9B
:1006700001010160704700BF141002401C100240CD
:1006800018100240034B4FF480321A6004330122E9
:100690001A60704700100240002205E000BF0133DD
:1006A000B3F5167FFADB0132B2F5167F01DA0023CB
:1006B000F6E7704708B5FFF785FFFFF7EDFFFAE7AC
:1006C00008B5FFF787FFFFF7E7FFFAE700B583B04C
:1006D000FFF7D8FFFFF752FFFFF762FF0A4B0193C6
:1006E00002240094002380220849094800F02CFBD2
:1006F000084B01930094002380220749074800F02B
:1007000023FB00F053FBFEE73000002080100008C0
:10071000B5060008340000208C100008C10600084F
:10072000124A12F0070F1ED0D11D21F00701C1F5AA
:10073000884313440A460E48026000214160134476
:10074000083B23F007030B48036059601960991AAE
:1007500051601360084B1960084B1960084B4FF04B
:1007600000421A6070474FF48843E4E73C000020E1
:100770005044002038000020444400204044002021
:100780003C44002010B4134A00E01A461368834228
:10079000FBD351685418844209D041684418A342DD
:1007A0000AD00360904200D0106010BC70474068CF
:1007B000014451601046F0E7074C2468A34206D07C
:1007C0005B681944416013681B680360EAE70460D2
:1007D000E8E700BF504400203800002070B505460F
:1007E00000F016FB2A4B1B68A3B12A4B1B681D4265
:1007F00046D135B1083515F0070F02D025F00705B1
:100800000835002D3ED0244B1B68AB423CD3234A15
:10081000146804E0FFF784FFE7E722461C4663689C
:10082000AB4202D22368002BF7D1194B1B68A342BD
:100830002CD0166808362368136063685B1B102B86
:1008400018D8626814490B689B1A0B601449096830
:100850008B4201D212490B600E4B1B68134363603D
:10086000002323600F4A13680133136000F058FB24
:10087000304670BD601943606560FFF783FFE0E7B5
:100880000026F3E70026F1E70026EFE70026EDE774
:10089000380000203C440020404400205044002008
:1008A000444400204844002018B338B50446A0F161
:1008B000080550F8042C0F4909680A4202D050F884
:1008C000080C00B138BD22EA010244F8042C00F003
:1008D0009FFA54F8041C084A13680B441360284616
:1008E000FFF750FF054A13680133136000F018FB4F
:1008F000E8E770473C440020404400204C4400207E
:1009000082B0002301934FF0BF0383F31188BFF33C
:100910006F8FBFF34F8F019B002BFCD002B070474D
:1009200006480068006880F3088862B661B6BFF3C5
:100930004F8FBFF36F8F00DF00BF000008ED00E0B6
:100940004FF0807340F8043C21F0010140F8081C8E
:10095000034B40F80C3C40F8202C4038704700BF57
:100960000109000800000000000000000000000075
:10097000074B19680868B0E8F00F80F30988BFF3E7
:100980006F8F4FF0000080F311884EF00D0E70470E
:10099000584400204FF0BF0383F31188BFF36F8FDB
:1009A000BFF34F8F024A136801331360704700BFD3
:1009B00020000020034A1368013B13600BB983F346
:1009C0001188704720000020000000000000000097
:1009D000EFF30980BFF36F8F0D4B1A6820E9F00F1A
:1009E00010602DE908404FF0BF0080F3118800F03F
:1009F00009FB4FF0000080F31188BDE8084019683A
:100A00000868B0E8F00F80F30988BFF36F8F704774
:100A10005844002008B54FF0BF0383F31188BFF39B
:100A20006F8FBFF34F8F00F0FBF918B1034B4FF0FE
:100A300080521A60002383F3118808BD04ED00E0A2
:100A4000054B00221A6005490A60054A41F63F71CC
:100A5000116007221A60704710E000E018E000E023
:100A600014E000E010B50B4B1A6842F47F021A60E4
:100A70001A6842F07F421A60FFF7E2FF0024064B3B
:100A80001C60FFF74DFF00F0BDFAFFF739FF20466D
:100A900010BD00BF20ED00E02000002000F10803A1
:100AA00043604FF0FF328260C36003610023036044
:100AB000704700230361704743684B609A688A60FF
:100AC0009A68516099600861036801330360704758
:100AD00003694268816891608268416851605A6820
:100AE000824206D0002202611A68013A1A60186830
:100AF000704782685A60F5E7084B1B681B683BB17A
:100B0000064B1B68DB68DB685A68054B1A60704748
:100B1000034B4FF0FF321A60704700BF5C44002067
:100B20000845002010B50446006BFFF7BDFE2046C7
:100B3000FFF7BAFE10BD2DE9F04780469946089DA3
:100B4000099F0A9C266B02F18042013A06EB82065D
:100B500026F0070689B30A4600230F2B07D8D05684
:100B6000E11881F83400D15609B10133F5E70023CB
:100B700084F84330042D00D90425E56265644FF004
:100B8000000AC4F848A0201DFFF793FF04F11800E5
:100B9000FFF78FFF2461C5F10505A5616462C4F804
:100BA0004CA084F850A04A4641463046FFF7C8FEA4
:100BB000206007B13C60BDE8F087002384F8343042
:100BC000D8E7000038B5002407E004EB8402930066
:100BD0000E481844FFF762FF0134042CF5D90C4D80
:100BE0002846FFF75BFF0B4C2046FFF757FF0A48EC
:100BF000FFF754FF0948FFF751FF0948FFF74EFF81
:100C0000084B1D60084B1C6038BD00BF64440020C9
:100C1000DC440020F0440020144500204045002022
:100C20002C4500205C4400206044002010B50446A0
:100C3000FFF7B0FE204A1368013313601F4B1B6897
:100C40005BB11F4B1B686BB91C4B1B68DA6AE36A0C
:100C50009A4207D8194B1C6004E0184B1C601368BB
:100C6000012B26D0174A136801331360E36A01226F
:100C70009A401549086802430A6003EB83039A000F
:100C8000211D12481044FFF717FFFFF793FE0C4B8E
:100C90001B686BB1094B1B68DA6AE36A9A4207D298
:100CA0000B4B4FF080521A60BFF34F8FBFF36F8F23
:100CB00010BDFFF787FFD5E7C84400205844002047
:100CC00028450020D4440020D8440020644400205B
:100CD00004ED00E00F4B1B68D3B110B5FFF75AFECF
:100CE0000D4BDB68DC68201DFFF7F2FE0B4A136832
:100CF000013B1360074A1368013B1360FFF75AFE7C
:100D00002046FFF70FFF034B1B68002BE6D110BDF9
:100D1000704700BFCC44002040450020C84400205C
:100D200008B5FFF7D7FF064B1B68012BF9D9054B18
:100D30004FF080521A60BFF34F8FBFF36F8FF0E711
:100D40006444002004ED00E02DE9F04385B007463F
:100D50008846154699469000FFF740FDF8B10646D3
:100D60005420FFF73BFD0446A8B10663D4B100232D
:100D7000039302940D9B01930C9B00934B462A46D0
:100D800041463846FFF7D7FE2046FFF74FFF0120C8
:100D900005B0BDE8F0833046FFF786FDE6E74FF08B
:100DA000FF30F5E74FF0FF30F2E7000000B583B009
:100DB000114B019300230093802210491048FFF744
:100DC000C3FF012802D003B05DF804FB4FF0BF035E
:100DD00083F31188BFF36F8FBFF34F8F094B4FF031
:100DE000FF321A60084B01221A60084B00221A6079
:100DF000FFF738FEE7E700BF044500209810000821
:100E0000210D0008084500202845002054450020F9
:100E1000024A136801331360704700BFD0440020BA
:100E2000F8B5344B1B68002B5DD1334B1D68013581
:100E30001D60ADB1314B1B68AB424AD90027304B26
:100E40001B68DB6A03EB83039A002E4B9B58012B34
:100E500000D901272C4B1B68002B49D0012747E004
:100E60002A4A11682A4B186810601960294A1368C9
:100E700001331360FFF740FEDCE70127234B1B68BB
:100E80001B6843B3214B1B68DB68DC6863689D42C9
:100E900026D3261D3046FFF71BFEA36A1BB104F1C3
:100EA0001800FFF715FEE36A01229A401A49086804
:100EB00002430A6003EB83039A0031461148104451
:100EC000FFF7FAFDE26A0E4B1B68DB6A9A42D4D246
:100ED000D4E70027D2E7094B4FF0FF321A60AEE7A4
:100EE000064A1360ABE70D4A13680133136000270D
:100EF0003846F8BDD0440020544500200845002065
:100F00005844002064440020584500205C440020E0
:100F1000604400200C450020D844002010450020EB
:100F200038B5FFF737FD2E4B1A68013A1A601B6877
:100F3000002B4DD12B4B1B683BB300242A4B1B6865
:100F40002BB3294BDB68DC6804F11800FFF7C0FD08
:100F5000251D2846FFF7BCFDE36A01229A4023497C
:100F6000086802430A6003EB83039A00294620487D
:100F70001044FFF7A1FDE26A1E4B1B68DB6A9A4230
:100F8000DCD31D4B01221A60D8E7002421E00CB10C
:100F9000FFF7B2FD194B1C6874B9174B1B68E3B11E
:100FA000174B4FF080521A60BFF34F8FBFF36F8F14
:100FB00001240EE0013C07D0FFF732FF0028F9D0F2
:100FC0000D4B01221A60F5E70C4B00221A60E4E792
:100FD0000024FFF7EFFC204638BD0024F9E700BFEE
:100FE000D0440020C844002014450020D8440020EC
:100FF000644400205844002058450020104500203B
:1010000004ED00E0194B1B681BBB10B4184B002209
:101010001A60184B1B68B3FA83F3DBB2C3F11F03EA
:1010200015489A00D418A10001444C6864684C60CB
:101030001A4491000831084484420ED003EB830324
:101040009A000D4B13445B68DA680C4B1A6010BCB5
:101050007047074B01221A607047606803EB8302F8
:101060009100054A0A445060E8E700BFD0440020E0
:1010700058450020D84400206444002058440020F3
:101080005265644C65644F6E000000005265644C0C
:1010900065644F464600000049444C45000000008E
:1010A000785634122C0000200000000000000000E0
:1010B00000000000010203040607080900A24A0418
:0810C000AAAAAAAA32547698EC
:040000050800010DE1
:00000001FF
