:020000040800F2
:100000000050002021020008270200082B020008EF
:1000100043020008470200085F02000800000000D9
:10002000000000000000000000000000D1090008EE
:100030007B02000800000000310A0008750A000871
:100040009102000891020008910200089102000844
:100050009102000891020008910200089102000834
:100060009102000891020008910200089102000824
:100070009102000891020008910200089102000814
:100080009102000891020008910200089102000804
:1000900091020008910200089102000891020008F4
:1000A00091020008910200089102000891020008E4
:1000B00091020008910200089102000891020008D4
:1000C00091020008910200089102000891020008C4
:1000D00091020008910200089102000891020008B4
:1000E000910200089102000891020008000000003F
:1000F0000000000000000000000000000000000000
:1001000000000000000000005FF808F100B583B0B7
:1001100000F0E0F8304B314A1360314A1360314B44
:10012000314A32498B4204D21168196004330432D7
:10013000F7E72A4B1A682E4B9A4200D0FEE7284B6D
:100140001A682C4B9A42F9D1234B2B4A13602B4A45
:1001500013602B4B02E000221A600433294A9342B9
:10016000F9D3254B1B6813B9244B1B6803B1FEE779
:1001700000F0BCF8694601A800F0A4F8224C234B1B
:10018000E41AA4100025AC4214DC214C214BE41AE3
:10019000A4100025AC4213DC0099019800F0CAFAC3
:1001A00005461D4C1D4BE41AA410002C0EDC2846FD
:1001B00000F086F8154B53F8253098470135E2E7F3
:1001C000144B53F8253098470135E3E7013C134BB6
:1001D00053F824309847E8E7BABADECA0000002096
:1001E0002400002000000020301300082800002018
:1001F0007856341232547698280000205C4500204E
:100200002800002060450020BC020008BC02000855
:10021000BC020008BC020008BC020008BC020008C6
:1002200008B5FFF773FF00BEFEE71EF0040F0CBF1A
:10023000EFF30880EFF309807146124A104700BEC1
:10024000FEE700BEFEE71EF0040F0CBFEFF30880D0
:10025000EFF3098071460C4A104700BEFEE71EF01E
:10026000040F0CBFEFF30880EFF309807146074AD3
:10027000104700BEFEE700BEFEE700BEFEE700BE80
:10028000FEE770473F0200085B02000873020008A7
:0402900000BEFEE7C7
:10029400301300080000002028000020301300085C
:1002A400000000000000000028000020604500203D
:0802B400000000000000000042
:1002C000FEE7000001230360014B0B60704700BF95
:1002D0000400002008B500F073F8024A024B9A604F
:1002E00008BD00BF0000000800ED00E008B500F008
:1002F0008FF808BD82B00023019300932C4A136845
:1003000043F4803313602A4B1B6803F400330093DB
:10031000019B01330193009B1BB9019BB3F5A06FB7
:10032000F1D1234B1B6813F4003F06D00123009347
:10033000009B012B04D002B0704700230093F7E725
:100340001C4B1A6842F010021A601A6822F003026D
:100350001A601A6842F002021A60A3F580535A68C4
:100360005A605A685A605A6842F480625A605A6801
:1003700022F47C125A605A6842F4E8125A601A68F1
:1003800042F080721A600A4B1B6813F0007FFAD0AB
:10039000074B5A6822F003025A605A6842F0020280
:1003A0005A60034B5B6803F00C03082BF9D1C2E7DA
:1003B000001002400020024008B5FFF79BFF08BD77
:1003C00008B5104B1A6842F001021A6059680E4ACB
:1003D0000A405A601A6822F0847222F480321A604D
:1003E0001A6822F480221A605A6822F4FE025A60C7
:1003F0004FF41F029A60FFF7DFFF044B4FF00062DB
:100400009A6008BD001002400000FFF800ED00E017
:100410001F4B5B6803F00C03042B15D0082B17D07F
:100420001BB11C4B1C4A1A6002E01A4B1A4A1A6094
:10043000174B5B68C3F30313184AD35CDAB2154950
:100440000B68D3400B607047124B134A1A60EFE7FA
:100450000F4A53685268C3F38343023312F4803F58
:100460000AD00B4A526812F4003F0BD00C4A02FB30
:1004700003F3084A1360DBE7094A02FB03F3054A6A
:100480001360D5E7044A02FB03F3024A1360CFE787
:10049000001002401C00002000127A000C00002016
:1004A00000093D0030B587B0084C019400258DF857
:1004B000085008238DF8093001A800F04FF80122F8
:1004C0002946204600F079F807B030BD0008014009
:1004D00008B50021034800F06BF808B9012008BDF9
:1004E0000020FCE70008014008B5012909D0184B9D
:1004F00098421ED0174B984220D0174B984222D0DA
:1005000008BD134B98420AD0124B98420CD0124BA4
:100510009842F5D10421022000F07CF8F0E7022196
:10052000084600F077F8EBE70321022000F072F8AC
:10053000E6E70221084600F093F8E1E703210220F4
:1005400000F08EF8DCE70421022000F089F8D7E7FC
:1005500000080140000C01400010014070B5054644
:100560000479467901210068FFF7BEFF072C10D9F6
:10057000083CE4B229684B68A4000F22A24023EA99
:1005800002034B602A68536806FA04F41C43546063
:1005900070BD29680B68A4000F22A24023EA020361
:1005A0000B602A68136806FA04F41C431460EFE732
:1005B0008068C84000F001007047012A04D0012380
:1005C00003FA01F141617047012303FA01F101616E
:1005D0007047C368012202FA01F14B40C3607047C3
:1005E00000B587B0064B019300238DF80830022335
:1005F0008DF8093001A8FFF7B1FF07B05DF804FBE3
:10060000000C014008B500210148FFF7E2FF08BDDA
:10061000000C01401F291CD801280BD010B1022862
:1006200010D070470B480368012202FA01F1194308
:100630000160704708480368012202FA01F119437A
:100640000160704705480368012202FA01F119436D
:1006500001607047141002401C1002401810024044
:100660001F291FD801280CD010B1022812D07047C2
:100670000D480368012202FA01F123EA0101016039
:1006800070470A480368012202FA01F123EA0101D6
:100690000160704706480368012202FA01F123EA6B
:1006A00001010160704700BF141002401C1002409D
:1006B00018100240034B4FF480321A6004330122B9
:1006C0001A6070470010024070B5064600F03EFC0C
:1006D00005464FF47A7404FB06F4054BA3FB04347F
:1006E000A40900F033FC2B199842FAD370BD00BF67
:1006F000D34D621008B5FFF7EBFE0128FBD1962021
:10070000FFF7E2FF0023022219460248006800F0CA
:100710009FFDF0E73400002008B54FF0FF330022C2
:100720001146104600F048FD0128F6D1FFF76AFF98
:10073000F3E7000000B583B0FFF7BCFFFFF7B2FEA0
:10074000FFF74EFF0B4B01930224009400234FF45C
:10075000FA720949094800F08DFB094B0193009496
:1007600000234FF4FA720749074800F083FB00F0BA
:10077000B3FBFEE73000002008130008F506000870
:10078000340000201813000819070008124A12F05C
:10079000070F1ED0D11D21F00701C1F58843134476
:1007A0000A460E480260002141601344083B23F0D2
:1007B00007030B48036059601960991A5160136070
:1007C000084B1960084B1960084B4FF000421A6043
:1007D00070474FF48843E4E73C0000205044002079
:1007E0003800002044440020404400203C440020C5
:1007F00010B4134A00E01A4613688342FBD35168D1
:100800005418844209D041684418A3420AD00360B6
:10081000904200D0106010BC7047406801445160A5
:100820001046F0E7074C2468A34206D05B681944E1
:10083000416013681B680360EAE70460E8E700BFF3
:10084000504400203800002070B5054600F076FBCB
:100850002A4B1B68A3B12A4B1B681D4246D135B1F8
:10086000083515F0070F02D025F007050835002DD3
:100870003ED0244B1B68AB423CD3234A146804E0AF
:10088000FFF784FFE7E722461C466368AB4202D2CB
:100890002368002BF7D1194B1B68A3422CD0166894
:1008A00008362368136063685B1B102B18D86268D6
:1008B00014490B689B1A0B60144909688B4201D2DA
:1008C00012490B600E4B1B681343636000232360C7
:1008D0000F4A13680133136000F0BEFB304670BD51
:1008E000601943606560FFF783FFE0E70026F3E7E8
:1008F0000026F1E70026EFE70026EDE738000020AC
:100900003C44002040440020504400204444002047
:100910004844002018B338B50446A0F1080550F843
:10092000042C0F4909680A4202D050F8080C00B1A3
:1009300038BD22EA010244F8042C00F0FFFA54F812
:10094000041C084A13680B4413602846FFF750FF45
:10095000054A13680133136000F07EFBE8E7704737
:100960003C440020404400204C44002082B000233E
:1009700001934FF0BF0383F31188BFF36F8FBFF371
:100980004F8F019B002BFCD002B0704706480068D7
:10099000006880F3088862B661B6BFF34F8FBFF37B
:1009A0006F8F00DF00BF000008ED00E04FF08073A4
:1009B00040F8043C21F0010140F8081C034B40F8CA
:1009C0000C3C40F8202C4038704700BF6D090008EF
:1009D000074B19680868B0E8F00F80F30988BFF387
:1009E0006F8F4FF0000080F311884EF00D0E7047AE
:1009F000584400204FF0BF0383F31188BFF36F8F7B
:100A0000BFF34F8F024A136801331360704700BF72
:100A100020000020034A1368013B13600BB983F3E5
:100A20001188704720000020000000000000000036
:100A3000EFF30980BFF36F8F0D4B1A6820E9F00FB9
:100A400010602DE908404FF0BF0080F3118800F0DE
:100A500075FB4FF0000080F31188BDE8084019686D
:100A60000868B0E8F00F80F30988BFF36F8F704714
:100A70005844002008B54FF0BF0383F31188BFF33B
:100A80006F8FBFF34F8F00F067FA18B1034B4FF031
:100A900080521A60002383F3118808BD04ED00E042
:100AA000054B00221A6005490A60054A41F63F716C
:100AB000116007221A60704710E000E018E000E0C3
:100AC00014E000E010B50B4B1A6842F47F021A6084
:100AD0001A6842F07F421A60FFF7E2FF0024064BDB
:100AE0001C60FFF753FF00F029FBFFF73FFF204694
:100AF00010BD00BF20ED00E02000002000F1080341
:100B000043604FF0FF328260C360036100230360E3
:100B1000704700230361704743684B609A688A609E
:100B20009A685160996008610368013303607047F7
:100B300030B40D68B5F1FF3F02D000F1080202E0C9
:100B4000026904E01A4653681C68AC42FAD953683B
:100B50004B6099608A6051600861036801330360EB
:100B600030BC70470369426881689160826841685F
:100B700051605A68824206D0002202611A68013A26
:100B80001A601868704782685A60F5E7084B1B685E
:100B90001B683BB1064B1B68DB68DB685A68054B7A
:100BA0001A607047034B4FF0FF321A60704700BF66
:100BB0005C4400200845002010B50446006BFFF798
:100BC000A9FE2046FFF7A6FE10BD2DE9F04780469E
:100BD0009946089D099F0A9C266B02F18042013AC2
:100BE00006EB820626F0070689B30A4600230F2B80
:100BF00007D8D056E11881F83400D15609B1013335
:100C0000F5E7002384F84330042D00D90425E5627C
:100C100065644FF0000AC4F848A0201DFFF779FF73
:100C200004F11800FFF775FF2461C5F10505A56102
:100C30006462C4F84CA084F850A04A46414630464D
:100C4000FFF7B4FE206007B13C60BDE8F0870023E9
:100C500084F83430D8E7000038B5002407E004EB0E
:100C6000840293000E481844FFF748FF0134042C17
:100C7000F5D90C4D2846FFF741FF0B4C2046FFF7F6
:100C80003DFF0A48FFF73AFF0948FFF737FF0948D9
:100C9000FFF734FF084B1D60084B1C6038BD00BFD8
:100CA00064440020DC440020F0440020144500206F
:100CB000404500202C4500205C440020604400207A
:100CC00010B50446FFF796FE204A136801331360FF
:100CD0001F4B1B685BB11F4B1B686BB91C4B1B6820
:100CE000DA6AE36A9A4207D8194B1C6004E0184B91
:100CF0001C601368012B26D0174A13680133136058
:100D0000E36A01229A401549086802430A6003EB2E
:100D100083039A00211D12481044FFF7FDFEFFF7E0
:100D200079FE0C4B1B686BB1094B1B68DA6AE36AEE
:100D30009A4207D20B4B4FF080521A60BFF34F8F8D
:100D4000BFF36F8F10BDFFF787FFD5E7C8440020C2
:100D50005844002028450020D4440020D8440020D6
:100D60006444002004ED00E00F4B1B68D3B110B5C4
:100D7000FFF740FE0D4BDB68DC68201DFFF7F2FE3D
:100D80000B4A1368013B1360074A1368013B136069
:100D9000FFF740FE2046FFF70FFF034B1B68002BB9
:100DA000E6D110BD704700BFCC4400204045002074
:100DB000C844002008B5FFF7D7FF064B1B68012B7E
:100DC000F9D9054B4FF080521A60BFF34F8FBFF334
:100DD0006F8FF0E76444002004ED00E070B5044636
:100DE0000E461D4B1D681D4B18680430FFF7BAFEF8
:100DF00050B91A4B1B68DA6A012303FA02F2184948
:100E00000B6823EA02030B60B4F1FF3F13D02C44BC
:100E1000124B1B685C60A54216D8124B18680F4B2A
:100E200019680431FFF784FE0F4B1B68A34212D9E7
:100E30000D4B1C600FE0002EE9D0084B19680431FF
:100E40000A48FFF769FE06E0094B1868034B19686A
:100E50000431FFF76DFE70BD54450020584400205A
:100E6000D84400205C440020084500202C45002088
:100E7000604400202DE9F04385B0074688461546BA
:100E800099469000FFF7E0FCF8B106465420FFF7C2
:100E9000DBFC0446A8B10663D4B10023039302949B
:100EA0000D9B01930C9B00934B462A4641463846C6
:100EB000FFF78BFE2046FFF703FF012005B0BDE8DA
:100EC000F0833046FFF726FDE6E74FF0FF30F5E709
:100ED0004FF0FF30F2E7000000B583B0114B0193F3
:100EE00000230093802210491048FFF7C3FF012818
:100EF00002D003B05DF804FB4FF0BF0383F3118809
:100F0000BFF36F8FBFF34F8F094B4FF0FF321A6063
:100F1000084B01221A60084B00221A60FFF7D2FD2D
:100F2000E7E700BF0445002028130008B50D0008BE
:100F3000084500202845002054450020024A136837
:100F400001331360704700BFD0440020014B186884
:100F5000704700BF54450020F8B5344B1B68002B88
:100F60005DD1334B1D6801351D60ADB1314B1B6840
:100F7000AB424AD90027304B1B68DB6A03EB830383
:100F80009A002E4B9B58012B00D901272C4B1B6834
:100F9000002B49D0012747E02A4A11682A4B1868DC
:100FA00010601960294A136801331360FFF7EEFDE2
:100FB000DCE70127234B1B681B6843B3214B1B68ED
:100FC000DB68DC6863689D4226D3261D3046FFF748
:100FD000C9FDA36A1BB104F11800FFF7C3FDE36A62
:100FE00001229A401A49086802430A6003EB83030E
:100FF0009A00314611481044FFF78EFDE26A0E4B0D
:101000001B68DB6A9A42D4D2D4E70027D2E7094BA7
:101010004FF0FF321A60AEE7064A1360ABE70D4AA5
:1010200013680133136000273846F8BDD044002010
:101030005445002008450020584400206444002006
:10104000584500205C440020604400200C450020EE
:10105000D84400201045002038B5FFF7CBFC2E4BBC
:101060001A68013A1A601B68002B4DD12B4B1B6884
:101070003BB300242A4B1B682BB3294BDB68DC688D
:1010800004F11800FFF76EFD251D2846FFF76AFDE5
:10109000E36A01229A402349086802430A6003EB8D
:1010A00083039A00294620481044FFF735FDE26A81
:1010B0001E4B1B68DB6A9A42DCD31D4B01221A606F
:1010C000D8E7002421E00CB1FFF760FD194B1C6844
:1010D00074B9174B1B68E3B1174B4FF080521A607D
:1010E000BFF34F8FBFF36F8F01240EE0013C07D099
:1010F000FFF732FF0028F9D00D4B01221A60F5E707
:101100000C4B00221A60E4E70024FFF783FC204622
:1011100038BD0024F9E700BFD0440020C8440020B7
:1011200014450020D8440020644400205844002086
:10113000584500201045002004ED00E0194B1B68C5
:101140001BBB10B4184B00221A60184B1B68B3FA73
:1011500083F3DBB2C3F11F0315489A00D418A10032
:1011600001444C6864684C601A449100083108449A
:1011700084420ED003EB83039A000D4B13445B684B
:10118000DA680C4B1A6010BC7047074B01221A60DA
:101190007047606803EB83029100054A0A4450607F
:1011A000E8E700BFD044002058450020D844002084
:1011B0006444002058440020F8B507460D46144604
:1011C0001E46FFF717FC204B1B6893F85030DBB22C
:1011D000022B0AD01C4B1A68D06C20EA0700D0649E
:1011E0001B68012283F85020CEB9FFF713FCFFF7EC
:1011F00001FC1CB1144B1B68DB6C2360124B1B6899
:1012000093F85030DBB2022B16D000240E4B1B6833
:10121000002283F85020FFF7FDFB2046F8BD114661
:101220003046FFF7DBFD094B4FF080521A60BFF3E9
:101230004F8FBFF36F8FD8E7034B1A68D36C23EA45
:101240000505D5640124E1E75844002004ED00E0E1
:10125000F8B504460F4615461E46FFF7CBFB0EB108
:10126000E36C336094F85030DBB2022284F85020F3
:101270006A1E032A15D8DFE802F002070C0FE26CA1
:101280001743E76401250DE0E26C0132E2640125B9
:1012900008E0E764012505E0022B09D0E764012599
:1012A00000E00125012B05D0FFF7B4FB2846F8BD6F
:1012B0000025F7E7261D3046FFF754FCE36A0122BC
:1012C0009A400D49086802430A6003EB83039A00C1
:1012D00031460A481044FFF71FFCE26A084B1B68BE
:1012E000DB6A9A42E0D9074B4FF080521A60BFF395
:1012F0004F8FBFF36F8FD7E7D8440020644400209E
:101300005844002004ED00E0427574746F6E436829
:1013100065636B466C6167004C656454616B654145
:101320006374696F6E00000049444C450000000082
:10133000785634122C00002000000000000000004D
:1013400000000000010203040607080900A24A0485
:08135000AAAAAAAA3254769859
:040000050800010DE1
:00000001FF
